:020000040000FA
:1028000000040020D5280000DD280000DF2800009B
:1028100000000000000000000000000000000000B8
:10282000000000000000000000000000E12800009F
:102830000000000000000000E3280000E528000080
:10284000E7280000412A0000E7280000E7280000F0
:10285000E7280000E7280000E7280000E72800003C
:10286000E7280000E7280000E7280000E72800002C
:10287000E7280000E7280000E7280000E72800001C
:10288000E7280000E7280000E7280000E72800000C
:10289000E7280000E7280000E7280000E7280000FC
:1028A000E7280000E7280000E7280000E7280000EC
:1028B000E7280000E7280000E7280000E7280000DC
:1028C0000348854600F014F800480047832D0000B7
:1028D000000400200448804704480047FEE7FEE764
:1028E000FEE7FEE7FEE7FEE7312C0000C12800000E
:1028F000064C0125064E05E0E36807CC2B430C3C53
:1029000098471034B442F7D3FFF7DEFF342E0000AF
:10291000442E0000002905D0054A52680243044BAA
:102920005A6004E0024A52688243014B5A60704781
:10293000403401400020124908601149803108608C
:10294000104908600F49803108600F4908600C4940
:1029500003221202891848600949891888600849C9
:102960008918C860064989180861054989184861AD
:1029700003498918886102498918C86170470000B5
:1029800000E100E000E200E000E400E010B572B613
:102990000120012181400A4A116000BF00BF0121CE
:1029A0008140084A116000BF002100F00DF80120AD
:1029B00001218140024A803A116000BF62B610BD19
:1029C00080E100E080E200E010B5002819DA1A4A40
:1029D00003071B0F083B9B089B00D2588307DC0EA4
:1029E000FF23A3409A438B071B0E8407E40EA340EA
:1029F0001A43114B0407240F083CA408A4001A51E1
:102A000018E00E4A03231B02D21883089B00D258F9
:102A10008307DC0EFF23A3409A438B071B0E84071A
:102A2000E40EA3401A43054B032424021B19840817
:102A3000A4001A5110BD00001CED00E000E100E010
:102A400010B50221064800F027F8012807D102211D
:102A5000034800F01DF84021014800F0CFF810BDF8
:102A6000002C014000BF0948C06802210843074903
:102A7000C8600846C068022108400228F3D1034814
:102A8000C06888430149C860704700004034014075
:102A900042698A4342617047024650690840884251
:102AA00001D1012070470020FCE7002A08D000BFB8
:102AB00003690B43036103690B408B42F8D107E0C4
:102AC00000BF03698B43036103690B408B42F8D05D
:102AD000704730B51378012B0FD183684D00032464
:102AE000AC40A34383609378002B18D053784C00FC
:102AF000A34084682343836011E01378022B0ED136
:102B0000C3684D000324AC40A343C3609378002BFB
:102B100005D053784C00A340C4682343C36030BD44
:102B2000002101704170817070471EB50022029231
:102B300050E06A46138901229A4093B201936A4693
:102B400092880B68134000936A46138892889342D8
:102B50003BD1426A6B461B889A434262436A0C79B6
:102B60006A46128994402343436243686A46128846
:102B70009343436043684C796A46128994402343E7
:102B80004360036A6A46128893430362036A8C793E
:102B90006A46128994402343036283696A46128815
:102BA000934383618369CC796A46128994402343B5
:102BB0008361C3696A4612889343C361C2690B7A11
:102BC0006C462489A3401A43C2616A461289521C8A
:102BD00093B202936A461289102AAADB1EBD000036
:102BE00005490160002101710121417100218171BC
:102BF000C171017270470000FFFF000002680A40C7
:102C0000002A01D0002200E00A4603688B430360DB
:102C10001A4303681A4302607047002A03D003680E
:102C20000B43036002E003688B4303607047704707
:102C300008B54848009047490098884274D172B658
:102C400000BF4548806845490843434988600846B5
:102C5000C0683E2108434049C860084680683F4933
:102C60000840884205D03C48C0688006800E3E2857
:102C7000E7D13849009888424FD172B600BF364834
:102C800080683649C9430840334988600846C068AF
:102C90003E2188433049C860084680682F49084073
:102CA000002805D02C48C0683E2108400028E6D105
:102CB0002849009888422AD172B600BF00202649D0
:102CC0000860486008460068002803D0084640684D
:102CD0000028F3D11F490098884210D172B600BF76
:102CE00001201D49403908600320486008460068FB
:102CF000012827D0084640680328F1D122E072B6A7
:102D00000020C043144908603F2048601AE072B6B2
:102D1000002011498860C86014E072B600200E4996
:102D20008860C8600EE0FFE700200B498860C8603B
:102D3000401E08603F204860012007494039086074
:102D40000320486062B6FFF772FF0520C002044905
:102D5000886008BDCCEE5A5A40340140FF1FDE2E79
:102D600000ED00E002E008C8121F08C1002AFAD1F5
:102D700070477047002001E001C1121F002AFBD1FB
:102D80007047FFF7D7FD00F035F800F005F8FFF7C2
:102D9000FDFD00BFFEE700001FB501210220FFF787
:102DA000B9FD01A8FFF71CFF022001900021684631
:102DB0000172012141720021C17201A90C48FFF783
:102DC000B4FE6846FFF7ACFE02216846017001219F
:102DD000417081706A460648FFF77BFE0221044875
:102DE000FFF756FE012202210148FFF75EFE1FBDDC
:102DF000002C01400EB501210220FFF78BFDFFF7EB
:102E000031FE6846FFF7ECFE402000900021684646
:102E1000017141718171C171017269460448FFF706
:102E200084FE012240210248FFF7F7FE0EBD00009C
:102E3000002C0140442E000000000020000400008F
:042E4000742D0000ED
:04000005000028C10E
:00000001FF
